:020000040001F9
:10F00000D873002015F201001DF2010021FD01005E
:10F0100021F2010023F2010025F2010000000000AE
:10F0200000000000000000000000000027F20100C6
:10F0300029F20100000000002BF201002DF2010076
:10F040009D0002002FF20100E90902002FF20100E9
:10F050002FF201002FF201002FF2010051020200F5
:10F060002FF201002FF201002FF201002FF2010018
:10F070002FF201002FF201002FF201002FF2010008
:10F080002FF20100390102002FF201002FF20100DE
:10F090001D0402002FF20100250402002FF20100DE
:10F0A0002FF201002FF201002FF201002FF20100D8
:10F0B0002FF201002FF2010000000000000000000C
:10F0C0002FF201002FF201002FF201002FF20100B8
:10F0D0002FF201002FF201002FF2010000000000CA
:10F0E0000000000000000000000000000000000020
:10F0F0000000000000000000000000000000000010
:10F1000000000000000000000000000000000000FF
:10F1100000000000000000000000000000000000EF
:10F1200000000000000000000000000000000000DF
:10F1300000000000000000000000000000000000CF
:10F1400000000000000000000000000000000000BF
:10F1500000000000000000000000000000000000AF
:10F16000000000000000000000000000000000009F
:10F17000000000000000000000000000000000008F
:10F18000000000000000000000000000000000007F
:10F19000000000000000000000000000000000006F
:10F1A000000000000000000000000000000000005F
:10F1B000000000000000000000000000000000004F
:10F1C000000000000000000000000000000000003F
:10F1D000000000000000000000000000000000002F
:10F1E000000000000000000000000000000000001F
:10F1F000000000000000000000000000000000000F
:10F20000DFF80CD000F0AEF800480047995A020031
:10F21000D87300200648804706480047FEE7FEE70F
:10F22000FEE7FEE7FEE7FEE7FEE7FEE7FEE7FEE7B6
:10F23000F905020001F201002DE9F05F054600200A
:10F2400092469B4688460646814640241BE0284657
:10F2500041464746224600F075F853465A46C01AC2
:10F26000914110D311461846224600F05CF82D1A41
:10F2700067EB01084F4622460120002100F053F8B9
:10F2800017EB00094E41201EA4F10104DFDC4846C3
:10F2900031462A464346BDE8F09F10B5431A9342D3
:10F2A00009D28318881803E010F8011D03F8011D26
:10F2B000521EF9D210BD40EA01039B0703D009E0BA
:10F2C00008C9121F08C0042AFAD203E011F8013B52
:10F2D00000F8013B521EF9D210BDD2B201E000F895
:10F2E000012B491EFBD270470022F6E710B51346EA
:10F2F0000A4604461946FFF7F0FF204610BD421C9F
:10F3000010F8011B0029FBD1801A704730B5044664
:10F310000020034600E05B1C934203D2E05CCD5C1E
:10F32000401BF8D030BD202A04DB203A00FA02F15D
:10F33000002070479140C2F1200320FA03F31943E3
:10F3400090407047202A04DB203A21FA02F0002185
:10F35000704721FA02F3D040C2F1200291400843E5
:10F3600019467047064C074D06E0E06840F001037F
:10F3700094E8070098471034AC42F6D3FFF744FFF7
:10F380008CCB0200ACCB020070B58C1810F8015B7E
:10F3900015F0070301D110F8013B2A1106D110F82E
:10F3A000012B03E010F8016B01F8016B5B1EF9D132
:10F3B0002B0705D40023521E0DD401F8013BFAE7B8
:10F3C00010F8013BCB1A921C03E013F8015B01F823
:10F3D000015B521EF9D5A142D8D3002070BD0000B8
:10F3E00010B50446024A0021084601F087FF10BD0F
:10F3F000F101020010B5044610480078012815D12B
:10F400000F480078022811D10E48007801280DD14C
:10F410000D48007888B93B220C490D48FFF73DFFA5
:10F420003B220B49062000F045FC06E00948006835
:10F4300002F09EF800200149087010BDFA26002055
:10F44000EC260020F826002094260020544A0020B4
:10F45000EC38002030C8020000201A49096840F644
:10F46000AC52914200DA11E016490968B1F57A6FA1
:10F470000BDA14490968A1F6AC51642251434FF4E8
:10F48000FA7291FBF2F1C8B200E064200E490872F2
:10F49000C97901F00F010C4AD1710C490978012991
:10F4A0000FD10B490978012905D11146C97941F0DD
:10F4B0002001D17105E00449C97941F01001024AE7
:10F4C000D1717047E82600204B4A00200626002014
:10F4D000E426002070B505460E4625484068407871
:10F4E00023494968097840EA012422480078012824
:10F4F0003DD1E01C20490988884238D100F094FEB3
:10F500001B488068007809282FD0194800680078C7
:10F510001A49097888420DD11548006900781849C0
:10F520000978884206D11248006940781449497820
:10F5300088421CD00E4800680078104908700C48BA
:10F54000006900780E4908700948006940784870E1
:10F5500003F09EFB28B990200A49087000F07AF861
:10F5600005E067200749087001E00AF02FF970BD37
:10F57000C0260020A62600204A260020D4260020EF
:10F58000D5260020D726002002490968491C014AD7
:10F5900011607047A02600200848007830B908485C
:10F5A000C07900F0F0000649C87105E00448C07950
:10F5B00040F001000249C871704700006D2600202C
:10F5C0004B4A002070B504460D461A4800780128C1
:10F5D00017D11948007830B11848006801F0C8FF09
:10F5E0000020154908701648008808B3144802889E
:10F5F00014480168012000F05DFB002010490880DC
:10F6000016E00E48006801F0B3FF00200A490870B8
:10F6100001200D4981F80002012201F5007102204C
:10F6200000F048FB022009490870002008490870D2
:10F6300070BD00006D260020DA2600202CC80200D4
:10F64000F4260020F0260020EC360020EC260020D6
:10F65000ED26002010B588B0202206496846FFF745
:10F660001CFE054880680078401E5DF82040A047D9
:10F6700008B010BD78C80200C026002070B504464E
:10F680000D464B48007880B900204A4908704A4925
:10F6900008804A4908804A4908704A49088003F0AE
:10F6A00031FA00204849087070BD474800780228A8
:10F6B00015D141480088414908800020424908701E
:10F6C00042480078092803D040480078072806D12E
:10F6D0003F48006801F04CFF00203E4908703E485A
:10F6E000007801281BD100203B4908703B49087075
:10F6F00030480078012812D12F480088801E2E49FA
:10F700000880084602883649881E0BF04DFC01200F
:10F710002D49087003F0F6F900202649087003F01F
:10F720001FF930480078012802D12F4800F01EFD53
:10F730002E4800F0B3FA002838D11E48007802287D
:10F7400017D12B480078032807DA0BF0A5FC2848CE
:10F750000078401C264908700BE0244801F074F83A
:10F7600003F0D0F9002013490870134908801349A9
:10F77000088013480078C8B11D480078032809DACA
:10F7800001211A4801F064F819480078401C184912
:10F7900008700BE0154801F057F803F0B3F90020AA
:10F7A00007490870074908800449088000BF7BE7C3
:10F7B0006D260020B82600204A260020B62600200C
:10F7C000B1260020BA260020A6260020EC26002024
:10F7D0002CC80200DA260020A5260020A42600203E
:10F7E000EE360020B42600202A4A0020A826002059
:10F7F000B026002070B505460E4642480078012824
:10F800004FD141480078092807D04048006801F0EE
:10F81000AFFE00203E49087073E03D48007848B9CB
:10F8200000224FF4F0113948006801F077FE012002
:10F83000374908703748008848B13648028836484A
:10F840000168012000F036FA002032490880334870
:10F850000078072813D12D48006801F089FE0020A8
:10F860002B4908702E4908702749087000F03EFCAB
:10F8700000202A49087001202A49087041E02448E4
:10F88000007802283DD12148006801F071FE002077
:10F890001F490870224908701B49087000F026FCB7
:10F8A0002FE01A48006801F063FE00201849087034
:10F8B00000F01CFC64244FF47A7114FB01F006F094
:10F8C00089FC00BF04F0E6FB0A2000BFC1060A461F
:10F8D000012303FA00F1C2F80C1500BF00BF00F0CD
:10F8E0001DFC0120104981F80002012201F5007180
:10F8F000022000F0DFF902200349087000200849C7
:10F90000087070BD6D260020EC2600202CC8020077
:10F91000DA260020F4260020F026002052260020BF
:10F92000ED26002054260020EC36002070B5044659
:10F930000D463F48007801284DD13E48007890B1EF
:10F940003C480078022818D13B48006801F010FEBE
:10F9500000203849087003F003F900203749087087
:10F9600000F0C4FB09E000224FF4F01132480068B7
:10F9700001F0D4FD01202F4908703148007801289A
:10F980004FD13048007800284BD12B48006801F057
:10F99000EFFD00202749087000F0A8FB642006F066
:10F9A000E0FA04F077FB0A2007F07FF900F0B6FBDD
:10F9B0000120254981F80002012201F50071022091
:10F9C00000F078F902201D49087000201F490870D6
:10F9D0001B49087025E01B48007810BB16480068DA
:10F9E00001F0C6FD00201349087000F07FFB642081
:10F9F00006F0B7FA04F04EFB0A2007F056F900F0C3
:10FA00008DFB0120104981F80002012201F50071EF
:10FA1000022000F04FF902200849087000200B492D
:10FA2000087000200A49087001200A49087070BD5A
:10FA30006D260020DA2600202CC80200EC260020CB
:10FA40006E26002094260020EC360020ED260020B3
:10FA5000522600205426002038B500241148008882
:10FA600000128DF800000F4800788DF801000D4855
:10FA700080788DF802000B48C0788DF803000422CE
:10FA80006946002002F04CF9044606480088001F31
:10FA900082B204484168204602F042F904462046FA
:10FAA00038BD00008026002038B5002414480088A6
:10FAB00000128DF80000124800788DF801001048FF
:10FAC00080788DF802000E48C0788DF8030004227B
:10FAD0006946002002F024F9044609480088001F06
:10FAE00082B207484168204602F01AF904460448E9
:10FAF0000089A04201D1002038BD0120FCE70000B0
:10FB00008026002070B504460D464E480078012836
:10FB100029D14D48007850B900224FF480414B481C
:10FB2000006801F0FBFC01204749087088E0464866
:10FB300000780228FAD14548006801F019FD00203C
:10FB4000414908700120424981F80002012201F573
:10FB50000071022000F0AEF800203E49087002203B
:10FB60003D4908706CE03D48007801281FD1002015
:10FB7000384908700220384908700A2000BFC106C1
:10FB80000A46012303FA00F1C2F80C1500BF00BFBA
:10FB900004F080FA00F0C2FA01202D4981F8000239
:10FBA000012201F50071022000F084F848E02648A7
:10FBB000007850B900224FF4C0312448006801F0A9
:10FBC000ADFC0120204908703AE01F480078022867
:10FBD00017D11E48006801F0CBFC00201A490870BC
:10FBE00001201B4981F80002012201F50071022069
:10FBF00000F060F8002017490870022016490870CC
:10FC00001EE017480078D8B11048006801F0B0FC39
:10FC100000200D49087001200D4981F800020122E1
:10FC200001F50071022000F045F802200A49087031
:10FC30000020084908700A49087001200949087025
:10FC400070BD000006260020DB26002038C8020018
:10FC5000EC360020ED260020EC26002007260020B0
:10FC6000522600205426002070B502460B4610464E
:10FC7000D51702EB5575ED105D5D1146D61702EBF9
:10FC80005676F610A2EBC606B540ECB204F0800042
:10FC900008B1012070BD0020FCE700000146044AC5
:10FCA00048681268904201D9012070470020FCE7A3
:10FCB000A026002070B505460E461446201D1049AA
:10FCC0000880084685700F480078401C0D49087070
:10FCD000084600780A49C87008464660FFF7BCFE2F
:10FCE00007490881084600890012496808550448F8
:10FCF000017A4268601C115401200349087070BDEC
:10FD0000802600208E2600209026002010B50A2490
:10FD10004FF47A7114FB01F006F078F900BF10BDC2
:10FD200000BF00BF00BF00BF00BFBFF34F8F00BFC9
:10FD300000BF00BF0948006800F4E06008490843BC
:10FD4000001D0649086000BF00BF00BFBFF34F8F12
:10FD500000BF00BF00BF00BF00BFFDE70CED00E02B
:10FD60000000FA052DE9FC41002468466DDF0646D7
:10FD700000BF374627B100BF384601F07FFA00BF09
:10FD800000BF2E48DDF801100160BDF8051081802C
:10FD9000002546E02948405D0A21B1EB201F09DD1E
:10FDA0002648405D302101EB201025490855601C94
:10FDB000C4B211E0312022490855601CC4B21F486A
:10FDC000405D00110A2190FBF1F201FB120030307E
:10FDD0001B490855601CC4B21848405D00F00F0074
:10FDE0000A2809DA1548405D00F00F003030144948
:10FDF0000855601CC4B212E0312011490855601C3E
:10FE0000C4B20E48405D00F00F000A2190FBF1F2F1
:10FE100001FB120030300A490855601CC4B2681C4E
:10FE2000C5B2062DB6DB074805490A6802604A6874
:10FE3000426089688160BDE8FC8100006F26002077
:10FE4000FC470020362600202DE9F04F17460024FD
:10FE50000A46CE1701EB5676C6F3C705CE1701EB5F
:10FE60005676F610A1EBC60606F0FF0CBCF1000FAB
:10FE700001D06A1CD5B26A1C02F0FF084FEAE07A92
:10FE800000EB5A7A4FEAEA0A17F80AA006464FEA48
:10FE9000E07B00EB5B7B4FEAEB0BA0EBCB0E4FF074
:10FEA000800B4BFA0EFB4AEA0B0A02464FEAE07B54
:10FEB00000EB5B7B4FEAEB0B07F80BA0002406E09E
:10FEC0003A5DD243D6B2A21C9E54621CD4B2AC425C
:10FED000F6DBBCF1000F0CD06A1C9A5CCCF1080672
:10FEE00042FA06F9CCF1080209FA02F2D6B26A1C0B
:10FEF0009E546A1CD4B209E01A5D22B9A8F101022D
:10FF000002F0FF0800E003E0621ED4B2012CF3DC33
:10FF100000BF83F80080B8F1010F01D0012200E09A
:10FF200000225A70BDE8F08F10B5044610480078E2
:10FF3000012814D10F480078022810D10E4800780B
:10FF4000A0B90E480E490A6802604A684260097A00
:10FF50000172092201460320FFF7ACFE06E00948C2
:10FF6000006801F005FB00200149087010BD000089
:10FF7000F9260020EC26002094260020EC380020F2
:10FF80004B4A002040C8020000F01F0201219140AE
:10FF9000024A430942F823107047000080E200E063
:10FFA00000F01F0201219140024A430942F8231048
:10FFB0007047000080E100E000F01F020121914045
:10FFC0004209920002F1E022C2F80011704700F0ED
:10FFD0001F02012191404209920002F1E022C2F881
:10FFE0000011704700F01F0201219140024A4309AD
:10FFF00042F823107047000000E200E010B500282E
:020000040002F8
:1000000007DA4A07140E054A00F00F031B1FD454E9
:1000100003E04A07130E024A135410BD18ED00E026
:1000200000E400E000BF00BF00BFBFF34F8F00BF80
:1000300000BF00BF0948006800F4E06008490843B9
:10004000001D0649086000BF00BF00BFBFF34F8F0F
:1000500000BF00BF00BF00BF00BFFDE70CED00E028
:100060000000FA0570B502460B461046D51702EBA4
:100070005575ED10AD1C5D5D1146D61702EB567639
:10008000F610A2EBC606B540ECB204F0800010B149
:10009000501CC0B270BD0020FCE7000010B54FF44A
:1000A000807005F03DFF60B14FF4807005F041FFB6
:1000B000012005F047FF01200B494870002002F0A5
:1000C0008FFF4FF4827005F02BFF58B14FF4827010
:1000D00005F02FFF022005F035FF0120024988704E
:1000E00002F07EFF10BD0000B850002010B50020C7
:1000F000074908700A2006F0B7FD06480078012875
:1001000001D100F00BFE00200349088010BD000063
:10011000082600208F2600209E26002010B50448C7
:10012000007808B90BF096FB01200249087010BD59
:100130008F2600200826002010B5002009490860FD
:1001400000210948C0F84411C0F84811C0F84C110A
:1001500000200549C1F8000102493C3908600BF054
:100160001BF910BD401101400010014070B504465C
:10017000002500262078401E19490978B1EBC00FF0
:1001800005DA214616480078FFF76CFF05464DB1A9
:10019000691EC8B200F05EF900B10126FFF7B6FD96
:1001A000FFF7B4FD0F480078854200D136B12078C2
:1001B000401E0B490978B1EBC00F09D100200A4954
:1001C0000870074908700121084800F041FB05E06C
:1001D00026B903480078401C0149087070BD000032
:1001E000BC260020B1260020B4260020A82600202E
:1001F00070B504460D460948008809490860094859
:10020000006801F0B5F900224FF4C03105480068DC
:1002100001F084F902F048FE70BD00005026002075
:10022000E826002028C8020005480088801E0549ED
:10023000084405490861002004490870704700001F
:100240004A260020EC360020C0260020A6260020EA
:10025000FEB54FF4827006F0CFFD002837D04FF482
:10026000827006F0D3FD6C4890F82E0018B16A48F1
:1002700090F82F0058B300208DF8000066484068C1
:10028000019065480189ADF80810C06818B90020D0
:100290006149087412E06048008B5F494883084652
:1002A000C06848600846008B08810020C860084686
:1002B00090F82E0010B9002006F0C0FD56480168E5
:1002C000684688470020544981F82F0000BF5248F3
:1002D00090F82E00002852D04FF4807006F08CFD6C
:1002E00000284CD04FF4807006F090FD4A48408BB7
:1002F000494991F82D10884216DD4748408B464900
:1003000091F82D10401A444948830A4612890B4639
:100310005B8BD21A0B465B6803EB42000A4692F8ED
:100320002D1006F01DFD23E03B48408B3A4991F823
:100330002D1088420FD13848C06860B1012036497D
:1003400081F82F00002048830A4692F82D10D068CB
:1003500006F006FD0CE03048408B2F4991F82D1037
:10036000884205D101202C4981F82F0000204883C4
:100370004FF4827006F04AFD042006F05FFD4FF452
:10038000887006F039FD70B14FF4887006F03EFDBC
:1003900000202149087402208DF8000008460168F9
:1003A0006846884700BF4FF48A7006F025FD38B1D3
:1003B0004FF48A7006F02AFD0020174908742AE0DD
:1003C0001548456924E0B5FA85F64FF00040F04045
:1003D0008543B00000F58C74204606F00DFDB8B1E1
:1003E000204606F013FD01208DF80000A4F58C7066
:1003F000C0F3C7008DF80400A4F58C70012121EA38
:1004000090018DF80510044801686846884700BFD0
:10041000002DD8D100BFFEBDEC50002010B50AF071
:10042000C5FE10BD70B50A48006868B1084800688C
:100430008047044600BF254625B100BF284600F08E
:100440001DFF00BF00BF01E004F0C2FE70BD000050
:100450000828002010B586B004468DF804402D48C9
:1004600000788DF80500A4B92B480088000A8DF8A3
:100470000600294800788DF807001022274902A8B5
:100480000AF092FD142101A802F05EFB002006B0E4
:1004900010BD9DF804001F490978081A012812D0E0
:1004A000601E00EBC000102202EB40001B4A8118C6
:1004B00012220DF106000AF077FD142101A802F0C6
:1004C00043FB0020E3E7601E00EBC000102303EBBA
:1004D0004000114B1B88181A82B2601E00EBC0004E
:1004E000102303EB40000D4BC1180DF106000AF07C
:1004F0005BFD601E00EBC000102202EB4000064ACC
:100500001288101A801C81B201A802F01DFB002085
:10051000BDE70000B1260020BA260020EC360020FE
:1005200070B505462C46E01C84B22012114949687A
:100530000870104949684C70E01C0F490880084653
:100540000088801E0D4908440A4908610A4800884D
:10055000801E82B20949002001F0E2FB06463012FB
:10056000044909690870034909694E700220044969
:10057000087070BDC02600204A260020EC360020FE
:10058000A626002010B51748C0680078072826D294
:10059000DFE800F025040A10161C22001149C96882
:1005A000481C0AF075F91AE00E49C968481C0AF09F
:1005B0002DF914E00B49C968481C0AF09BF90EE0BC
:1005C0000849C968481C0AF027F908E00549C968C4
:1005D000481C0AF049F902E00AF0BAF900BF00BF6E
:1005E00010BD0000C0260020014802490860704785
:1005F0000090D0032028002010B502F0C5FF28B1DC
:1006000082480088C0F304208149086002F0E6FFB8
:1006100010B180488049486702F0F8FF30B17B484C
:10062000E0380068C0F342307C49086003F018F8F5
:1006300028B17B48006820F080707949086003F099
:1006400027F848B10020774908604FF08041C1F891
:1006500010017249091F086003F044F818B1032023
:100660006E496431086003F055F868B105206E49A1
:10067000086001206C497831086000206A4908311F
:1006800008603F20091F086003F05CF8002855D07F
:100690005E48E0300068654908605C48E430006806
:1006A000091D08605948E8300068091D086057486E
:1006B000EC300068091D08605448F0300068091DDE
:1006C00008605248F4300068091D08604F48F8304F
:1006D00000685649203108604C48FC300068091D0C
:1006E000086053480068091D08605148001D0068F3
:1006F000091D08604E4808300068091D08604C4814
:100700000C300068091D08604948103000684749EE
:1007100040310860464814300068091D08604448AC
:1007200018300068091D086041481C300068091D28
:1007300008603F4820300068091D086002F0FAFE9A
:1007400030B13248CC38006800F04F0039490860B9
:1007500033487438006840F47000314974390860D7
:1007600000BF00BF00BFBFF34F8F00BF00BF00BF7F
:1007700000BF00BF00BFBFF36F8F00BF00BF00BF4F
:100780002D48006800F00100E0B301202B4908600B
:1007900000BF2B4800680028FBD02748006820F0E5
:1007A00001004FF01021C1F80C0200BF244800687E
:1007B0000028FBD000202149086000BF20480068C5
:1007C0000028FBD000BF00BF00BF00BF00BFBFF3C9
:1007D0004F8F00BF00BF00BF1148F038006800F421
:1007E000E06018490843001D0D49F039086000BF5A
:1007F00000BF00BFBFF34F8F00BF00BF00BF00BFEF
:1008000000BFFDE7FFE7FFF7EFFE10BD2403001078
:10081000403501400DF0ADBA00C007403C05004036
:10082000FCED00E00C0100401056004020C50040E7
:1008300024040010E40E00400C12001004E50140F6
:1008400000E401400000FA050021016041607047AA
:10085000044A1268026001EB8102024B1B681A44D1
:1008600042607047A0260020704700000221014A24
:1008700011707047DB260020704700000221014AFA
:1008800011707047DC26002010B504460020434953
:1008900008704348007820B1012822D002287AD17C
:1008A00053E01F2006F02FFA68B901203B49087079
:1008B0003C480078401C3B49087001203A490870C8
:1008C000374908700CE03948006800F051FE0020FC
:1008D0003749087033490870364908703249087042
:1008E00059E01F2006F00FFAA0B92E480078401CEE
:1008F0002C49087000202F490870284908702948A1
:1009000000780C2820DD02202549087000202549A8
:10091000087019E000202349087026480078401C20
:1009200024490870084600780C280DDD00201C4979
:100930000870204908701D48006800F019FE00206A
:100940001B4908701849087025E01F2006F0DBF9E4
:1009500001281AD100201349087016480078401C5D
:100960001449087008460078232813DD00200C493C
:100970000870104908700D48006800F0F9FD00206B
:100980000B4908700849087004E000200949087004
:100990000449087000BF00BF10BD000007260020FA
:1009A000DF260020E02600200626002048C802009E
:1009B000DD260020E126002010B504460848007816
:1009C000401C0749087008460078092807DD054AD9
:1009D0000021084600F092FC00200149087010BD7B
:1009E000DE26002005BD020010B50648007F20B1BC
:1009F000044905480BF059F803E0024902480AF09F
:100A00005BFF10BDCC500020002000407CB50446A8
:100A10000D46B0A000680190AFA000680090AF48FC
:100A2000007801287ED1AE480078012818D1AD4861
:100A30000078092803D0AB480078072806D1AA48D7
:100A4000006800F095FD0020A84908700AF0D6FF64
:100A50000020A3490870A64908800120A549087014
:100A6000A5480078022806D1032168460BF00AF851
:100A70000020A1490870A1480078012837D1A0487A
:100A8000006800F075FD00209E4908709E490870BE
:100A9000FFF70AF8E8B99D48C0789D49097888426F
:100AA0000FD19A48008992490988884218D09748FE
:100AB00000898F49088000208E49087000F062F993
:100AC0000EE002208B490870032101A80AF0DAFF2A
:100AD00006E0022087490870032101A80AF0D2FF2E
:100AE00000208C490870854908708B49087081483E
:100AF0000078012869D187480078D0B38048006821
:100B000000F036FD00207F490870824800780228F6
:100B100014D17D480078401C7B4908700846007855
:100B20000A2800E062E003DA01206D49087018E04D
:100B30000020704908707449087012E000206D4967
:100B400008707149087067480078092803D0654823
:100B50000078072805D10120FFF7E2FC0120664953
:100B6000087000206B490870644908706A49087071
:100B70002BE0FFE76348007850B900224FF4804132
:100B80005F48006800F0CAFC01205E4908701CE064
:100B90005C480078022818D15948006800F0E8FC49
:100BA00000205849087058480078401C5649087081
:100BB000084600780A2803DA01204949087004E051
:100BC00000204C490870504908704A4800780228B3
:100BD0007ED14C48007850B900224FF480414848FB
:100BE000006800F09BFC01204649087070E0454811
:100BF000007802281AD14248006800F0B9FC0020B1
:100C00004049087040480078401C3F490870084639
:100C100000780A2804DA032101A80AF033FF57E01C
:100C20000020344908703849087051E03348007892
:100C300001284DD13248006800F09AFC002031496B
:100C40000870FEF731FF48BB3048C078304909785A
:100C500088420DD100202F4908702B490870254982
:100C60000870032168460AF00DFF00F08BF82AE0B7
:100C700025480078401C24490870084600780A2856
:100C800004DA032101A80AF0FDFE1CE00020194946
:100C900008701D4908701F49087014E01A48007850
:100CA000401C19490870084600780A2804DA032114
:100CB00001A80AF0E7FE06E000200E49087012497C
:100CC0000870144908700020134908700B49087017
:100CD0007CBD00005AA501005AA500008F26002007
:100CE00090260020EC2600202CC80200DA260020E6
:100CF0009E260020942600208C260020912600208D
:100D000044C80200DC260020952600208026002012
:100D10008E260020932600209226002010B500F099
:100D20003FFC00200C4908700C4908700C49087001
:100D30000C4908700C4908700C4908700C4908707F
:100D40000C4908700C4908800C48006800F010FC41
:100D500000200B49087010BD8F260020902600202F
:100D60008E26002091260020952600209226002025
:100D700093260020942600209626002044C80200D6
:100D8000DC26002010B51E488078012802D00528F6
:100D900034D120E01A480088001F000A1949C968A8
:100DA000487017480078001F1649C9688870144BAE
:100DB0001B881A1F124B5968124BDB68D81CFEF7B0
:100DC0006CFA0F490988491E88B2FFF7A9FB012078
:100DD0000D49087012E00A48406800780949C9685E
:100DE00008700748406840780649C9684870022082
:100DF000FFF796FB01200449087000BF00BF10BD3B
:100E000080260020C02600208C26002002E008C892
:100E1000121F08C1002AFAD170477047002001E074
:100E200001C1121F002AFBD1704700000146202992
:100E300008DA012088400A4A104008B101207047B2
:100E40000020FCE7402909DAA1F12000012202FA82
:100E500000F008B10120F2E70020F0E70120EEE702
:100E6000FC06FFBD00BFEFF31081084672B6704765
:100E70003EB51F49002005F08DFB044600BF254606
:100E800025B100BF284600F0F9F900BF00BF194A9C
:100E900007CA8DE807006946002005F037FB0446C5
:100EA00000BF254625B100BF284600F0E7F900BF86
:100EB00000BF0121104805F0C9FA044600BF2546CD
:100EC00025B100BF284600F0D9F900BF00BF0121BD
:100ED0000948801C05F0BAFA044600BF254625B132
:100EE00000BF284600F0CAF900BF00BF3EBD0000A9
:100EF000FD9D020050C802005626002070B5054630
:100F00000C4605B10CB9002070BD28784008217846
:100F1000B0EB510F01D00020F6E70622611C681CDF
:100F2000FEF7F4F908B90120EEE70020ECE70246ED
:100F3000002104E0505C08B101207047491C0629DB
:100F4000F8D30020F9E7000010B504466CB108485A
:100F50000068A04209D806484068A04205D3204650
:100F600004F04CFA08B1012010BD0020FCE700009D
:100F7000242800202DE9FC41044688461646002519
:100F800037880020308094F82D0058B13A46314619
:100F9000404601F0D1FA054600BF15B12846BDE82C
:100FA000FC8100BFA07850B13A463146404600F07F
:100FB000E7FB054600BF0DB12846F0E700BFE0782B
:100FC00060B1E17848B23B463246414603F0F0F862
:100FD000054600BF0DB12846E1E700BF606868B173
:100FE000616891F900003B46324641460AF0E3FA57
:100FF000054600BF0DB12846D1E700BF2089002873
:101000000EDD43460622022104F10800CDE9006707
:101010000BF066F8054600BF0DB12846BFE700BFDC
:10102000208A00280EDD43460722032104F1100028
:10103000CDE900670BF054F8054600BF0DB1284616
:10104000ADE700BF208B00280EDD4346152214219A
:1010500004F11800CDE900670BF042F8054600BF27
:101060000DB128469BE700BF206A58B13B46324687
:101070004146206A02F041F8054600BF0DB12846FE
:101080008DE700BF606A58B13B4632464146606A10
:1010900004F0B2FD054600BF0DB128467FE700BF52
:1010A00094F82C0000280BDD3B4632464146204692
:1010B00009F07CFA054600BF0DB128466FE700BF76
:1010C000207858B13B4632464146204604F0ECFDBC
:1010D000054600BF0DB1284661E700BF28465EE720
:1010E00070B504461448FFF722FF0546012C06D0D0
:1010F000022C0BD0032C10D0042C1AD113E00F4873
:10110000407810B10DB1012070BD00BF0B48807850
:1011100010B10DB10220F7E700BF0848C07808B150
:101120000320F1E700BF0548007908B10420EBE790
:1011300000BF0020E8E700000A270020944A0020B2
:101140000146481C052290FBF2F302FB1300C0B2DB
:1011500070470146C87800F0040008B907207047BE
:101160000020FCE730B5A7B03C2118A8FEF7BCF87A
:1011700002208DF8600000208DF8620005208DF8B7
:1011800063003C2101A8FEF7AFF80320ADF814007E
:1011900011490691202110A8FEF7A6F801208DF82C
:1011A0004300000214907820159000200B4B10AAE9
:1011B00001A9009018A800F01BFE044600BF2546B8
:1011C00025B100BF284600F059F800BF00BF01203C
:1011D00000F008FE27B030BDFA250020316F020074
:1011E00070B58CB004460D461646002005E0C0F1EF
:1011F0000F01615C0DF80010401C1028F7D30D2181
:1012000004A8FEF771F8002005E02A5CC0F10F0386
:1012100004A9CA54401C0328F7D3684643DF0020C2
:1012200005E0C0F10F0208A9895C3154401C032875
:10123000F7D30CB070BD000000BF00BF00BF00BFFF
:1012400000BFBFF34F8F00BF00BF00BF0948006859
:1012500000F4E06008490843001D0649086000BF2B
:1012600000BF00BFBFF34F8F00BF00BF00BF00BF74
:1012700000BFFDE70CED00E00000FA053EB50446B6
:10128000002000900190029002946A46002144F2EE
:101290000100FFF7D1FF3EBD70B504460D46204664
:1012A00002F09EFE28B12946204602F08DFE002065
:1012B00070BD0520FCE7034609B90E20704712B146
:1012C000501E104008B10920F8E71960501E9880A0
:1012D00000209860D86000BFF0E770B504460D4666
:1012E000204602F07DFEA188884205D82946204686
:1012F00002F089FE002070BD0420FCE72DE9F843D0
:1013000007460C46904626480088844244DC4FF647
:10131000FF7500200090684600F008FA00BF2148E1
:1013200090F800902048007804F072FD484501D103
:10133000012000E0002030B91B480578007804F057
:1013400067FD194908709DF8000000F0F5F94FF6A7
:10135000FF7085421ED01548006840F835808FB177
:10136000002C0FDD124909680D4A128805FB021096
:1013700022463946FDF791FF0C48006800EBC50096
:10138000848005E000200949096801EBC5018880D7
:10139000002600E0042600E009263046BDE8F88378
:1013A000BE270020BC270020BD270020B427002036
:1013B000B82700202DE9F0411AE0164804781648B5
:1013C00000681649098804FB01051548006800EB10
:1013D000C40086881248006850F8347031462846A8
:1013E000B8470C48007804F013FD0A49087000BFA4
:1013F00000BF002058B900BF06490878094909789C
:10140000814201D1012100E000210029D5D0BDE8B1
:10141000F0810000BC270020B8270020BE27002054
:10142000B4270020BD27002030B50346481C4FF6E6
:10143000FF7505EAC004104600F003050DB901254B
:1014400000E000250DB9072030BD084802601019E2
:10145000074D28600020074D2870074D2870074869
:101460000380074801800020EEE70000B427002039
:10147000B8270020BD270020BC270020BE27002061
:10148000C027002010B503460C4600BF0B488078EB
:1014900008B9082010BD00BF0AB90720FAE70BB948
:1014A0000720F7E71868007C08B10820F2E7196800
:1014B000002008744C744A6100BFEBE71C51002007
:1014C00010B508F0B9FB00200F49087048700B20D8
:1014D000887000200D4908600D4908700D4908709A
:1014E0001420FEF751FD07211420FEF787FD14207C
:1014F000FEF762FD002008F075FB08F06DFB064961
:101500000860002010BD00001C510020C4270020EE
:10151000D4270020D5270020C82700202DE9F0413E
:1015200004460E461746254600BF1048807810B97D
:101530000820BDE8F08100BF0CB90820F9E7052EAE
:1015400001D20720F5E7686908B90820F1E7687C4F
:10155000012801D1304600E0002080463B4642464B
:101560003146284609F0C8FEE3E700001C51002080
:1015700070B50446254600BF0848807808B90820A1
:1015800070BD00BF0CB1686908B90820F8E70020F9
:1015900028740221284609F0DEFEF1E71C510020E4
:1015A00010B5024805F0B4FA002010BDD82700207D
:1015B0002DE9F04104460F48077821460E48FFF711
:1015C0006BFE804697B100200A49087001220B4942
:1015D0000B4805F08BF8054600BF2E4626B100BF2C
:1015E0003046FFF74BFE00BF00BF00BF4046BDE8DE
:1015F000F0810000E627002028520020E527002087
:10160000D82700202DE9F04188B004460D46174642
:1016100098462E4807601DB9072008B0BDE8F08144
:10162000A88882B22A482968FFF745FE064600BF0F
:101630000EB13046F1E700BFA88982B22548A968FB
:10164000FFF739FE064600BF0EB13046E5E700BFA2
:10165000202221496846FDF720FE60690690207C23
:1016600008B1012000E000208DF814008DF81C80E6
:10167000607C08B10E2000E000208DF81500E068C5
:101680000290A06803902068019060680090134A5F
:101690006946134804F0E8FF064600BF0EB1304625
:1016A000BBE700BF00200F4908702068401C58B1FC
:1016B0009DF81D0010B90A4805F082F801220A4978
:1016C000074805F013F8A8E70020A6E7E027002068
:1016D000285200203852002058CB020081B7020067
:1016E000D8270020E6270020E527002070B5044613
:1016F00021460B48FFF7F1FD054675B9094805F08D
:10170000F9F950B908490648FFF7C6FD28B9012282
:101710000549044805F038F90546284670BD000023
:1017200038520020D8270020E427002010B50446B6
:10173000204608F001FC10BD70B5044625460E4851
:101740008068B0B1ADB9FFF78DFB06460A48006866
:101750000A490860084840684FF0E021C1F80401D8
:101760000020054988601EB900BF62B600BF00BFF7
:1017700000BF00BF70BD00004852002000E100E043
:10178000F8B505460C4617462088001DB84201D919
:101790000C20F8BD684679DF064600BF0EB1304622
:1017A000F7E700BF0320218868542088401C208070
:1017B0001920218868542088401C208020884119E5
:1017C000BDF800000AF024FA218808442080002097
:1017D000DFE7000070B505460C462068401C28B1C4
:1017E000206805F0B2FA206805F032FA6068401C03
:1017F00018B10021606805F012FA28792D4901EB33
:101800004010007F50B32868A169C0F8241500BFBC
:10181000617D227D286841EA0203C0F86C3500BF73
:10182000D4E90012286805F067FB207D01283FD12C
:10183000A068401C18B10021A06805F0F0F9E0682C
:10184000401C28B1E06805F080FAE06805F000FA75
:10185000D4E90221286805F03BFB29E02868A1694A
:10186000C0F8241500BF617D227D286841EA02038B
:10187000C0F86C3500BFD4E90012286805F00FFBF2
:10188000207D012814D1A068401C18B10021A06857
:1018900005F0C5F9E068401C28B1E06805F055FA8C
:1018A000E06805F0D5F9D4E90221286805F0E0FAEE
:1018B00070BD0000CC50002030B5A3B013480078B4
:1018C00000F004FE0546284608F06AFBD8B101A8DE
:1018D00000F05CFD442201A912A8FDF7DEFC002403
:1018E0000DE013A931F814000849097800F0FCFD57
:1018F00020B113A931F8140004F008F8641C129800
:10190000A042EED800BF23B030BD00004627002023
:1019100010B50446637903F003022179208803F0AF
:10192000E1FE10BD10B50446207918B9204600F03C
:1019300007F803E02046FFF7EBFF00BF00BF10BD34
:101940002DE9F04188B004460025208800F090FD84
:101950000746208803F07CFB0646A0680790607A63
:101960000690208800222349097800F0D1FD17B99C
:1019700008B0BDE8F0816079C0F3800090B1072124
:10198000304606F075FA0546BDB108208DF8000016
:101990002088ADF80200ADF804600295684601F0B9
:1019A0009FFF0AE020881449097800F09DFD20B1CE
:1019B000304603F037FB804600BF03208DF80C0053
:1019C0002088ADF80E006079C0F380008DF810001B
:1019D000A079C0F380018DF811109DF81C108DF8CE
:1019E00012109DF818108DF8131003A801F078FF5D
:1019F00000BFBDE7862700208827002030B585B0CE
:101A000014216846FDF770FC2B48009001208DF8EA
:101A100004000020029064208DF80C0000BF9DF8A7
:101A20000D0020F00F00401C8DF80D009DF80D00FA
:101A300020F0F00010308DF80D0000BF00BF9DF8C1
:101A40000E0020F00F00401C8DF80E009DF80E00D7
:101A500020F0F00010308DF80E0000BF00BF9DF8A0
:101A60000F0020F00F018DF80F109DF80F0020F0EF
:101A7000F0018DF80F1000BF00BF9DF8100020F09E
:101A80000F00401C8DF810009DF8100020F0F000B1
:101A900010308DF8100000BF6946084800F0A2FB26
:101AA000044600BF254625B100BF2846FFF7E6FBE8
:101AB00000BF00BF05B030BD5F6F0200BC3C00201E
:101AC000F0B591B004460D46207DD8B100200990B4
:101AD00000BF9DF8240020F00F00401C8DF824006A
:101AE0009DF8240020F0F00010308DF8240000BF95
:101AF000687B8DF825009DF8260020F00600801CEC
:101B00008DF826001C210AA8FDF7EEFB9DF82800A1
:101B100020F00200801C8DF82800207D08B10120F3
:101B200000E000209DF8281060F304118DF82810C3
:101B300000200B900D900E90207D08B109A800E0C8
:101B400000200F900020109000BF01208DF80E00A3
:101B500042F61920ADF80C0000BF00200290A87BCF
:101B60008DF80800E87B8DF809009DF80A0020F048
:101B70000600801C8DF80A009DF80A0020F008007D
:101B80008DF80A009DF80A0020F010008DF80A0078
:101B90009DF80A0020F001008DF80A00287B0190D2
:101BA000142104A8FDF7A0FB03A8049002A8059047
:101BB0000120ADF818000020ADF81A000120ADF8A2
:101BC0001C0001A80890A088A31D04AA0AA9A2DFEE
:101BD000064616B1304611B0F0BDA868002855D0B1
:101BE00000BF01208DF80E0042F60810ADF80C0081
:101BF00000BF00200290287C8DF8080000BF9DF8EF
:101C0000090020F00F008DF809009DF8090020F070
:101C1000F0008DF8090000BF9DF80A0020F00600D2
:101C2000801C8DF80A009DF80A0020F008008DF84D
:101C30000A009DF80A0020F010008DF80A009DF8B7
:101C40000A0020F001008DF80A006846A96800F03B
:101C5000B9FD0746142104A8FDF746FB03A804902C
:101C600002A80590ADF818700020ADF81A00BDF874
:101C70001800ADF81C00CDF820D0E08804F10E0269
:101C800004A9A3DF06461EB13046A4E70020E08188
:101C90000020A0E7014641F20402914201DD6420E8
:101CA0002EE0B1F57A6F01DD5A2029E040F68C7202
:101CB000914201DD502023E0B1F5756F01DD462032
:101CC0001EE040F61E72914201DD3C2018E040F615
:101CD000D862914201DD322012E040F6CE6291429C
:101CE00001DD28200CE040F6BA62914201DD1E20A1
:101CF00006E040F67462914201DD142000E00A2003
:101D0000704770B5064604F097FC044600BF2546B0
:101D100025B100BF2846FFF7B1FA00BF00BF70BD74
:101D200070B513460BE0024611F8014B82EA040538
:101D3000EDB2064E36F8155085EA222528461A1EC1
:101D4000A3F10104A4B22346EDD170BD98C80200EE
:101D50002DE9F04192B080460D461F201190109061
:101D6000B8F1000F17D04046FFF7F3F9044600BF63
:101D70001CB1204612B0BDE8F08100BF11AA08A92D
:101D80004046FFF7F7F8044600BF0CB12046F1E7E4
:101D900000BF08AE02E0002600201190ADB1284639
:101DA00009F02CF9044600BF0CB12046E2E700BF61
:101DB00010AA69462846FFF7DDF8044600BF0CB1BB
:101DC0002046D7E700BF6F4602E0002700201090B2
:101DD000BDF84000C3B2BDF84400C1B23A46304637
:101DE00072DFC7E70149087070470000082700202C
:101DF0002DE9F04704460F4615461E46DDF82080C3
:101E000004B115B90E20BDE8F087012048490870DB
:101E1000002048490870202229464748FDF73DFA2E
:101E2000002046490870464806604648C0F80080D1
:101E30004FF6FF70444908804448002101608180CA
:101E400081713C214248FDF74FFA207840490870E3
:101E5000A0788870E078C870607848700846D4E947
:101E60000412C0E90412D4E90212C0E902120146C8
:101E7000D4E90602C1E90602606AD0B13548486279
:101E800035498160606A00883149496A0880606A22
:101E900080882F49496A8880002005E0616A896846
:101EA000095C2D4A1154401C2949496A898881429C
:101EB000F4D8A06A08B32949294881602449886276
:101EC00026492348806A816001202149896A8880E7
:101ED0001F49896A0880002005E0A16A8968095CB9
:101EE0001E4A1154401C1A49896A89888142F4D8D3
:101EF00094F82C00164981F82C00206A58B1194832
:101F000013490862206A4088096A4880206A00886C
:101F10000F49096A0880606810B10D49606848601F
:101F200039460B48FFF714FF814648466BE700002F
:101F30000427002007270020944A002008270020BB
:101F40001C27002020270020182700200927002018
:101F5000B44A0020F04A0020112700201327002057
:101F6000FC4A00201427002010B5044620881028C1
:101F700004D0112806D01B280CD107E0204605F01C
:101F800029F908E0204605F0D7F904E0204605F0DD
:101F9000B5FA00E000BF00BF10BD000070B50546F7
:101FA000022D02D0032D15D100E000BF0B480078B0
:101FB00078B10020094908700948007800F014F849
:101FC000044634B10748006818B12046054909683D
:101FD000884700E000BF00BF70BD0000052700205B
:101FE00007270020202700207FB505464E480078AF
:101FF00010B9082004B070BD4C48057002F042F9D9
:1020000020B101204A4908700020F3E74948002127
:102010000160818081714848407818B14348007858
:1020200001280DD04448807818B140480078012834
:1020300006D04148807888B13C48007802280DD10C
:102040003E48006838B101203D49087008203B49EE
:102050000968884702E00020394908702846FFF7E0
:102060003FF83249087035480068C0B1084600782A
:10207000032803D008460078042810D12E480078A1
:1020800068B13048007850B900202F49087001200D
:102090002E490870072029490968884702E0002076
:1020A0002A490870002000900190029003908DF85A
:1020B00000008DF808001D48007805281CD2DFE8D4
:1020C00000F01703080D1200684608F019FB0446DB
:1020D00013E0684608F024FB04460EE0684608F06A
:1020E00035FB044609E0684608F060FB044604E05E
:1020F00000201749087000E000BF00BF0B480078BF
:1021000038B114480178684673DF04460CB12046A4
:1021100070E70A48006820B10D480078074909684F
:102120008847002066E700000427002007270020DA
:102130000527002009270020944A00201C270020A2
:1021400010270020242700202627002025270020F4
:10215000062700200827002033B587B0044614B9AD
:102160000E2009B030BD0025207C9DF8201088424B
:1021700036D00020059006900120ADF81400002014
:10218000ADF8160008A80690E188608A05AAA4DFC9
:1021900005461DB99DF82000207401E02846E0E7BF
:1021A000608A4FF6FF71884219D0207DB8B10020B7
:1021B0000190029003900490E088ADF804000120A3
:1021C0008DF80600BDF81600ADF8080005A80390CC
:1021D00006980490608A01A9A6DF054600E008255C
:1021E0002846BEE7F8B504460D4604B10DB90E20E9
:1021F000F8BD286820604FF6FF706082287920754E
:10220000FF20207400BF01208DF8020041F60F006E
:10221000ADF8000000BF221D69460120A0DF064680
:102220000EB13046E4E729462046FFF749FCDFE7D8
:1022300070B505460C4605B104B970BD208810285C
:1022400004D0112807D050280FD109E02146284694
:1022500004F0BDFF0AE02146284605F069F805E0D4
:102260002146284605F0AFF900E000BF00BF00BFDF
:10227000E3E7000038B50446124821680160616850
:1022800041607ADF0546D5B90F4803F099F858B98F
:1022900001200E4908700B490D48008875DF05467E
:1022A00001200C4908700AE00B48406930B1012058
:1022B0000090094841696846884700BF00252846C4
:1022C00038BD000028270020342700203C270020AC
:1022D0003227002030270020084B002070B505462B
:1022E0001C2229461248FCF7D8FF0020114908702B
:1022F000286850B1104829680A680260496841603E
:102300007ADF04463CB1204670BD0B487BDF0446B3
:102310000CB12046F8E74FF6FF700849088000200E
:1023200007490870074A00210748FFF7ABF8EBE7B9
:10233000084B00203C2700202827002032270020BF
:102340003027002075BC020098CA020010B5044670
:102350002088102806D0112808D012280ED0502826
:1023600010D107E0204604F013FF0CE0204604F0F3
:10237000BBFF08E0204605F0DDF804E0204604F04D
:10238000FBFE00E000BF00BF10BD000010B504461A
:102390000348011D426C204607F07EFE10BD000080
:1023A000444B002010B5044603482246016D001D31
:1023B00007F05BFE10BD0000444B002010B5044642
:1023C00003482246416D001D07F04FFE10BD00007E
:1023D000444B002070B504462088102804D01128F2
:1023E0001DD01A2840D11EE007F090FBA08807F00E
:1023F00007FA20B900BF0420FEF740FF0EE0E07BA3
:10240000022801D1012000E000200546A2882B46C9
:102410001649A1F1480007F060FE00BF24E0A08843
:1024200007F096FB20E0207A0121B1EB101F01DAC2
:10243000012000E000200346A2880C49091DA1F1FB
:102440004C0007F04AFE207A0221B1EB101F01DA9E
:10245000012000E000200346A28804490831A1F1D0
:10246000500007F03AFE00BF00BF70BD904B002047
:1024700070B5044600250B482246416C001D07F04C
:10248000F4FD60B107482246C16C001D07F0EDFD68
:1024900006460EB1022000E00120054600BF284696
:1024A00070BD0000444B002010B500240AE0204617
:1024B00009F048FC20B9204609F03AFC204610BD3E
:1024C000601CC4B2182CF2DB1820F8E710B50446E3
:1024D000204609F037FC18B1024850F8240010BD1E
:1024E0000020FCE79C4B002070B505460C462046BA
:1024F00009F028FC38B1054850F824102A46543811
:1025000007F0B3FD70BD0020FCE700009C4B0020ED
:1025100070B505460C461646204609F013FC38B146
:10252000044800EB840133462A46543807F0D5FDB1
:1025300070BD00009C4B00202DE9FC4105460C4677
:10254000174620880930B84202D90C20BDE8FC812A
:1025500068466DDF064600BF0EB13046F6E700BFA5
:102560000820218868542088401C20801B20218856
:1025700068542088401C208020882844DDF8011001
:102580000160BDF8051081802088801D20809DF8A5
:102590000000400818B900202188685402E001209A
:1025A000218868542088401C20800020CEE700004D
:1025B0007CB5044600BF01208DF8060041F60A00F4
:1025C000ADF8040000BF164A01A90120A0DF0546AE
:1025D0000DB128467CBD208800280DDD11480090F3
:1025E000228804F13C0342F62920616800F0E0FBF8
:1025F00005460DB12846EDE7208C00280DDD0A4880
:102600000090228C04F13C0342F62620616A00F01F
:10261000CFFB05460DB12846DCE70020DAE70000D5
:10262000A0270020A2270020AA27002010B50446DA
:102630002046FFF7CFFE204606F0DCFB21460A4885
:1026400000F062F821460948FFF7F2FD2046FFF747
:102650007DFE204604F08EFC2046FFF785FC2146D7
:10266000034803F0FBFB10BD34280020BC3C0020D5
:102670005028002070B586B004460E46214B0FCB83
:1026800001AD0FC500BF14B90E2006B070BD00BF6C
:1026900000BF0EB90E20F8E700BF4FF6FF70A08212
:1026A0003068A0610020A075214601A862DF0546C0
:1026B00000BF0DB12846E8E700BF20788DF816006E
:1026C0000120ADF81400A21C05A9A0DF054600BF3B
:1026D0000DB12846D9E700BF3146204607F0F7FA8A
:1026E000054600BF0DB12846CFE700BF3146204662
:1026F00008F0B6FE054600BF0DB12846C5E700BF8D
:102700000020C2E744CB020070B505460C4605B177
:1027100004B970BD2088102804D0112807D0502893
:102720000FD109E02146284604F04EFD0AE021467B
:10273000284604F0F9FD05E02146284604F020FF74
:1027400000E000BF00BF00BFE3E737B584B0044638
:102750000D4600BF14B90E2007B030BD00BFA08ADF
:102760004FF6FF71884201D0A07D08B90820F3E739
:10277000BDF81800142801DD0720EDE700200090C7
:10278000019002900390A088ADF80000039506A880
:10279000029001208DF80200A08A6946A6DFDBE7DF
:1027A00070B504460D462846FCF7A9FD20806560FB
:1027B00070BD70B50446204609F024FA054605F0C0
:1027C000010070BD2DE9F04105460E460024327827
:1027D0002146641C6A5472782146641C6A5400BF06
:1027E000022C01D1012000E00020074627B900BFDC
:1027F0000020FEF743FD00BF00BF2046BDE8F0818A
:1028000070B586B052480068059000BF0023502282
:10281000504905A808F066FB054600BF2E4626B1C4
:1028200000BF3046FEF72AFD00BF00BF00BF0020FA
:10283000049004A808F028FB044600BF254625B1F3
:1028400000BF2846FEF71AFD00BF00BF0020019020
:102850000290039001208DF8040000208DF80500FF
:102860008DF8060001A94020049A69DF044600BFE4
:10287000254625B100BF2846FEF700FD00BF00BF7A
:10288000002001900290039001208DF80400172091
:10289000ADF8060001A92320049A69DF044600BFB1
:1028A000254625B100BF2846FEF7E8FC00BF00BF63
:1028B000002001900290039001208DF804004FF455
:1028C000A071ADF808108DF8060001A92020049A27
:1028D00069DF044600BF254625B100BF2846FEF744
:1028E000CDFC00BF00BF04A808F0E4FA044600BF16
:1028F000254625B100BF2846FEF7C0FC00BF00BF3B
:1029000001203DDF044600BF254625B100BF284613
:10291000FEF7B4FC00BF00BF0F4808F0BFFA044642
:1029200000BF254625B100BF2846FEF7A7FC00BF23
:1029300000BF0A4808F02CFB044600BF254625B11D
:1029400000BF2846FEF79AFC00BF00BF06B070BD6E
:1029500014C80200642800202D2602006FB0020077
:1029600000B585B06248008811282CDA60480088DC
:10297000002828DD01205F49087000208DF8000044
:10298000084600788DF8010000208DF802005848B4
:1029900000788DF8030056480288574901A808F0CE
:1029A00003FB53480088001D81B2684600F0CCF854
:1029B0004F4800885149088000204D490880012176
:1029C0004F48FDF745FF4A48008810287EDD4848FB
:1029D00000881038122190FBF1F0401C4549087026
:1029E00008460078401E00EBC000102101EB4000BB
:1029F0003F490988884204DA3E480078401C3D4936
:102A000008703E480088E0B900208DF80000394881
:102A100000788DF8010036480088000A8DF8020021
:102A2000334800788DF803001022334901A808F0DC
:102A3000BBFA1421684600F087F810202F4908805F
:102A400050E02E4800881038122190FBF1F0401C15
:102A5000C0B28DF80000274800788DF801009DF87D
:102A6000000024490978081A012812D02248234A74
:102A70001288811812220DF1020008F095FA142133
:102A8000684600F061F81D48008812301B49088034
:102A900028E0174800881038184B1B88103BC01AD4
:102AA00082B21548154B1B88C1180DF1020008F0C1
:102AB0007BFA0F4800881038104A1288103A801AA2
:102AC000801C81B2684600F03FF800E00EE0084844
:102AD00000880A490880002005490880012108482B
:102AE000FDF7B6FEFDF712F9FDF710F905B000BDD0
:102AF000B6260020B1260020EC360020BA260020A1
:102B0000A826002000B50F220021094808F06CFA21
:102B100014220021074808F067FA002006490870CF
:102B200006490870064908700649087000BD000093
:102B30003C4A0020284A0020B2260020B02600206F
:102B4000B3260020B426002070B504460D462A4660
:102B500021460248FFF7F9FD70BD0000342800202F
:102B600000200149087070476E26002010B53F48CC
:102B70000078072800D110BD3D48C06800780228C1
:102B800013D13C48007801280FD13948C068C01CD7
:102B9000394908603648C06880783549C96849783D
:102BA00040EA0120354908805EE03148C06800787D
:102BB000012800D0DFE732480068FEF7D9FC00208A
:102BC000304908702A48C0684078012821D1102077
:102BD00004F060F8FDF78AFA01F05CFA0A2004F0CC
:102BE00059F8102004F0A6F8642003F0B1F9FDF7BD
:102BF00095FA0020244981F80002012201F50071B4
:102C00000220FDF757F801201A49087009201749DA
:102C100008701748C068407830BB102004F03AF8BC
:102C2000FDF764FA642003F093F901F033FA0A2007
:102C300004F030F8102004F07DF8FDF76FFA012061
:102C4000114981F80002012201F500710220FDF70F
:102C500031F802200549087000200C490870054928
:102C600008700120FDF75CFC00BF84E7EC26002023
:102C7000C0260020ED260020F0260020F4260020AB
:102C80002CC80200DA260020EC360020F8260020AE
:102C900070B50B480088801E82B20A490020FFF7F9
:102CA0003FF80546084800690478074800694078FD
:102CB00040EA0424AC4201D0012070BD0020FCE7B2
:102CC0004A260020EC360020C02600200120FDF717
:102CD00027FC164A00210846FEF710FB002404E0FA
:102CE000FEF768FB3EDF601CC4B2142CF8DB00BFAB
:102CF00000BF00BF00BF00BFBFF34F8F00BF00BFCA
:102D000000BF0B48006800F4E0600A490843001D5A
:102D10000749086000BF00BF00BFBFF34F8F00BF6F
:102D200000BF00BF00BF00BFFDE700007DF601004F
:102D30000CED00E00000FA0501468879012809D170
:102D40000879012806D1488842F60212904201D142
:102D5000012070470020FCE710B51248006800F021
:102D60000100F0B101201049086000BF0F48006861
:102D70000028FBD00B48006820F001004FF0102124
:102D8000C1F80C0200BF094800680028FBD00020F1
:102D90000549086000BF054800680028FBD0FDF722
:102DA00041F910BD0C12001004E5014000E401409F
:102DB0002DE9F0438FB007460D4614461E46DDF858
:102DC000588000BF0DB1012000E000208146B9F11C
:102DD000000F04D100BF0020FEF750FA00BF00BF73
:102DE00000BF002C01DD012000E000208146B9F188
:102DF000000F04D100BF0020FEF740FA00BF00BF63
:102E00001C2107A8FCF770FA9DF81C0020F00200B6
:102E1000801C8DF81C00002008900A900B900C90EC
:102E20000D9000BF01208DF83A00ADF8387000BF5A
:102E30000020019030788DF8040070788DF805003E
:102E40009DF8060020F00600801C8DF806009DF815
:102E5000060020F008008DF806009DF8060020F01E
:102E600010008DF806009DF8060020F001008DF896
:102E70000600142102A8FCF737FA0EA8029001A858
:102E80000390ADF810400020ADF81200ADF81440EA
:102E90000695434602AA07A902480088A2DF0FB0A0
:102EA000BDE8F083A027002008480078012809D158
:102EB0001F2000BF4FF0A042114600BFD1F81025DF
:102EC00000BF02E00020024908707047062600207B
:102ED000E4260020014639B10448884204D8044859
:102EE000884201D9012070470020FCE724280020F7
:102EF0003428002070B505460E46002407E055F83A
:102F0000340002F07BFA08B9002070BD641CB442A2
:102F1000F5D30120F9E700000A49496C81B109495C
:102F2000096C084A02EBC1010160114691F840109A
:102F3000491C01F0070111641146496C491E516496
:102F40007047000054530020064902688A4203D0AB
:102F5000016808310160704702493839016000BFDB
:102F6000F9E700008C5300200178022902D0017893
:102F700003290BD106490A6C817D1144044A11646E
:102F800011464A6C817D511A014A51647047000014
:102F9000545300202DE9F04104460D464FF6FF76CC
:102FA000304684420AD14FF48071284605F0DCFE99
:102FB0000646B6F5807F0FD126460DE0FF2C0BDCD0
:102FC0002146284605F0C0FE07460FB1204601E025
:102FD0004FF6FF70064600BF3046BDE8F0810000A6
:102FE00070B505460DB9094C01E0084C083409E0FC
:102FF000204602F00BFA064606B904E0284671683E
:10300000884700BFF4E700BF70BD0000C05000203B
:103010002DE9F04782461F480068002836D01D4839
:103020000068056806F0D8FD07461B48046821467D
:10303000384608F041F8C61C1848007808B906F070
:10304000DDFDAE4201D2284600E03046044424F0C3
:103050007F44204606F0BAFD06F0BEFD80463946A4
:10306000404608F029F800F103093946204608F0E7
:1030700023F8814509D906F0AFFD814606F0A6FD8B
:103080002F2003F0F3F808F0D3F901E006F0D4FDA7
:10309000BDE8F087C4270020C8270020D6270020DD
:1030A00001460888062808DB0888B0F5486F06DD69
:1030B00008884FF6FF72904201D007207047488879
:1030C000062808DB4888B0F5486F06DD48884FF6CB
:1030D000FF72904201D00720F0E708884FF6FF7298
:1030E000904208D04888904205D008884A8890428B
:1030F00001DD0720E2E70020E0E72DE9F041064688
:103100000D46144698462088801D404502D90C2063
:10311000BDE8F0813046FFF7C3FF074600BF0FB19F
:103120003846F5E700BF0520218868542088401CF8
:1031300020801220218868542088401C208022880A
:103140005119308808F064FD2188084420802288C5
:103150005119708808F05CFD218808442080002007
:10316000D6E710B5044600BF2046FEF787F800BF3B
:1031700010BD000030B587B01C216846FCF7B4F8DC
:10318000002000904FF42030019040000290032076
:103190008DF80C000020ADF80E008DF810000948E5
:1031A0000590094806906846FFF798F8044600BF66
:1031B000254625B100BF2846FEF760F800BF00BFD6
:1031C00007B030BD317102006331020038B51B48D1
:1031D00002F0F6F820BB1A48007848B11948406957
:1031E000E8B100200090174841696846884716E01A
:1031F0001548007810B91348456801E01148856802
:103200000022294611480068FEF788F9044634B1C7
:103210000C48806918B10B4881692046884709E04D
:103220000848406930B1012000900648416968466D
:10323000884700BF00200249087038BD34270020AD
:103240003C270020084B00203027002098CA0200AD
:103250003EB504462088FFF7A5F8D0B12088104974
:103260000978FFF741F928B9208800220D4909782B
:10327000FFF74EF92088ADF8020005208DF8000018
:103280002088FFF79BF88DF80400684600F028FBC3
:1032900005E02088012241F2060100F029F93EBD37
:1032A00087270020862700207CB504460D46002095
:1032B00000900190A81D00EBC4008079ADF80000DB
:1032C000A81D00EBC4008079ADF802000022694619
:1032D00020468FDF06467CBD70B506460D460EB112
:1032E000012070BD287920B1012809D0022813D10E
:1032F0000FE0284606F0ECFA0446022028710DE0A3
:10330000284600F089FE04460A2C01D141F61D54DE
:1033100004E041F61D5401E00F2400BF00BF204629
:10332000DFE770B5044620793D2802D141F23D0027
:1033300001E04FF48850054620880022294602F01B
:10334000D1F970BD10B54948C0680078012834D162
:1033500047480068FEF70CF90020464908704648C7
:103360000078D8B900F09EFE102003F0E3FC642042
:1033700002F0EEFDFCF7D2FE07203F490870012065
:103380003E49087002203949C96808700020374951
:10339000C96848703549C96888700BE00220334914
:1033A000C968087001203149C968487000202F4958
:1033B000C96888700320FDF7B3F82C48C06800780E
:1033C000032812D12C48007807280ED12748C0685E
:1033D000C01C2B4908602548C06880782349C9680B
:1033E000497840EA0120274908802048C0680078D1
:1033F00004283AD120480078072836D11C480068B4
:10340000FEF7B6F800201B490870102003F042FCBC
:10341000FCF76CFE642002F09BFD00F03BFE0A20EE
:1034200003F038FC102003F085FCFCF777FE012048
:10343000154981F80002012201F500710220FCF714
:1034400039FC02200C49087000200C490870022049
:103450000649C968087000200449C96848700349D2
:10346000C96888700320FDF75BF810BDC0260020F6
:103470002CC80200DA260020EC260020ED260020D1
:10348000F0260020F4260020EC36002001461448E7
:103490000078144A127890421DD011480078401CE0
:1034A0000F4A107010460078022801D100201070D9
:1034B0000D480B4A127850F8220008600B4A086841
:1034C00012681044094A10601046006820F07F40DE
:1034D0001060012070470020086000BFFAE700007C
:1034E000D4270020D5270020CC270020C827002083
:1034F000FEB504460D461646094A07CA8DE8070080
:10350000ADF80240ADF804508DF806600022054881
:1035100001782046FEF7FCFF684600F0E1F9FEBDA9
:1035200034CB02008627002010B50446A08928DF8E
:1035300010BD000013480078062820D11148001D56
:10354000007800F00F00D0B90E480830007800F085
:10355000F000302801D1012070470A480830007877
:1035600000F0F000402801D10120F5E705480830BF
:10357000007800F0F000502801D10120ECE7002095
:10358000EAE70000E00F00F013480078062820D199
:103590001148001D007800F00F00D0B90E48083027
:1035A000007800F0F000302801D1012070470A486F
:1035B0000830007800F0F000402801D10120F5E744
:1035C00005480830007800F0F000502801D10120B3
:1035D000ECE70020EAE70000E00F00F00A4800787E
:1035E00006280ED10848001D007800F00F0040B9F1
:1035F00005480830007800F0F000302801D10120A3
:1036000070470020FCE70000E00F00F0134800784E
:10361000062820D11148001D007800F00F00D0B915
:103620000E480830007800F0F000302801D1012069
:1036300070470A480830007800F0F000402801D1B7
:103640000120F5E705480830007800F0F000502828
:1036500001D10120ECE70020EAE70000E00F00F0D4
:103660000A48007806280ED10848001D007800F0AE
:103670000F0040B905480830007800F0F00030280D
:1036800001D1012070470020FCE70000E00F00F0AE
:1036900013480078062820D11148001D007800F05A
:1036A0000F00D0B90E480830007800F0F000302844
:1036B00001D1012070470A480830007800F0F0007E
:1036C000402801D10120F5E705480830007800F0D6
:1036D000F000502801D10120ECE70020EAE70000CB
:1036E000E00F00F00A48007806280ED10848001DB7
:1036F000007800F00F0040B905480830007800F06D
:10370000F000302801D1012070470020FCE70000C4
:10371000E00F00F00A48007806280ED10848001D86
:10372000007800F00F0040B905480830007800F03C
:10373000F000302801D1012070470020FCE7000094
:10374000E00F00F00A48007806280ED10848001D56
:10375000007800F00F0040B905480830007800F00C
:10376000F000502801D1012070470020FCE7000044
:10377000E00F00F00278072A34D2DFE802F03304C9
:1037800007102029300000220A702CE001220A7064
:1037900003898B818388CB81C2688A6023E00222FF
:1037A0000A7003898B818388CB81C2688A60027C1E
:1037B000062A01D1012300E000230B7413E0032249
:1037C0000A70C3888B810389CB81C2688A600AE052
:1037D00004220A70C3888B810023CB8103E0052279
:1037E0000A7000E000BF00BF7047000070B50546DA
:1037F000002409E0064850F8240020B1044850F89D
:10380000241028468847641C082CF3D370BD0000A0
:10381000BC5200203EB505460C46DCB1112C19D037
:103820000020009001900290ADF8025001940D2C00
:1038300003D10B208DF8000008E0862C03D10A206C
:103840008DF8000002E009208DF80000684600F0C5
:1038500057F800BF3EBD000070B50546002405E0E6
:10386000044850F8241028468847641C002CF7D0E0
:1038700070BD00004027002070B50546002405E01B
:10388000044850F8241028468847641C002CF7D0C0
:1038900070BD00004C27002070B50546002405E0EF
:1038A000044850F8241028468847641C022CF7D39B
:1038B00070BD0000CCCA020070B50546002405E0CA
:1038C000054850F8241028468847641C03480078AF
:1038D0008442F5DB70BD00006C5000208227002080
:1038E00070B50546002405E0044850F82410284629
:1038F0008847641C022CF7D370BD0000FCCA02008C
:1039000070B50546002405E0044850F82410284608
:103910008847641C002CF7D070BD000040CB02002B
:10392000F0B5034600241FE0124E306806689E4240
:1039300003D90668F61A06601AE006689B1B06683B
:103940003444002606600B4E35680A4FC6693E6057
:10395000C66846B10E1926F07F464660C668866086
:103960001668C661156000BF024800680028DBD1F8
:1039700000BFF0BDC427002010B521480078022800
:1039800030D120480078002839D11F480068FDF761
:10399000EFFD00201D4908701D480068FDF7E8FD97
:1039A00000201C4908701649087001201A49087047
:1039B0001A481B490A6802604A6842608968816047
:1039C0000420184981F80C02002081F80D0281F8CA
:1039D0000E020F2211490820FCF76CF9022012494F
:1039E00008700CE00948007848B9012007490870C0
:1039F000002241F69A1104480068FDF78FFD10BDC2
:103A0000522600209426002030C80200FA2600200A
:103A10002CC80200DA26002054260020EC380020B2
:103A200036260020EC360020F826002010B510487D
:103A3000007802281AD10F480078B8B90E480068FB
:103A4000FDF796FD00200D49087009490870012016
:103A50000B4908700B4981F80002012201F5007141
:103A60000220FCF727F900200749087010BD00006C
:103A700052260020942600202CC80200DA260020BE
:103A800054260020EC360020F826002010B5FBF765
:103A900083FDFBF7E1FCFCF7E7FE214800780228F4
:103AA00030D120480078002839D11F480068FDF740
:103AB0005FFD00201D4908701D480068FDF758FD96
:103AC00000201C4908701649087001201A49087026
:103AD0001A481B490A6802604A6842608968816026
:103AE0000420184981F80C02002081F80D0281F8A9
:103AF0000E020F2211490820FCF7DCF802201249BF
:103B000008700CE01148007848B901200F4908708E
:103B1000002241F69A110E480068FDF7FFFC10BD27
:103B2000522600209426002030C80200FA260020E9
:103B30002CC80200DA26002054260020EC38002091
:103B400036260020EC360020F8260020F92600203A
:103B500040C802001FB50446606808B9012000E0B3
:103B6000002003902078062873D2DFE800F0880355
:103B70000433558100BFA08900F06DFA18B9E089BF
:103B800005F0B7FF10B3A08900F060FAADF80200AD
:103B9000E08905F0ABFF8DF804002078012807D1FB
:103BA000606808B9002000E003208DF8000006E0FE
:103BB000606808B9012000E004208DF8000060680A
:103BC0000390A0680290684604F010FA0120314981
:103BD000087055E0A08900F03EFA18B9E08905F0B8
:103BE00088FFA8B1A08900F031FAADF80200E089A1
:103BF00005F07CFF8DF80400606808B9022000E041
:103C000005208DF80000A0680290684604F0EEF9E7
:103C100001202049087033E0A08900F01CFA30B37D
:103C2000E08920BBA08900F011FAADF80200E0891C
:103C300005F05CFF8DF80400FF208DF8040060683B
:103C400040B906208DF80000BDF8020004F0EAFB40
:103C500003E014E007208DF8000000200E490870F2
:103C60000E49087004F028FB684604F0BFF907E02D
:103C700008208DF80000684604F0B8F900E000BFA5
:103C800000BF0548007820B100200349087004F007
:103C900013FB1FBD5C2700205E2700205F2700204C
:103CA00010B588B00446022000F06EFA10B9022068
:103CB00008B010BD4FF6FF70844201D10420F7E731
:103CC00005208DF8040001208DF80800ADF80A40A9
:103CD0000022114601A803F097FC18B105F054FD2D
:103CE0000020E5E70820E3E700B587B0022000F0F8
:103CF0004BFA10B9022007B000BD06208DF8000075
:103D000000221146684603F07FFC48B10548007860
:103D100010B101200349087305F036FD0020EAE7E1
:103D20000820E8E7BC53002010B58CB0142107A888
:103D3000FBF7DAFA022000F027FA28B107A8FFF70C
:103D400055FD00200CB010BD012000F01DFA08B197
:103D50000020F7E7012000F023FA00F0FFFA01202D
:103D60008DF8000003F05CFD04460C2C28D2DFE83F
:103D700004F0061407152722092327191E1A00BF6D
:103D80000B20DFE7022000F00BFA012000F0E2F93F
:103D900007A8FFF72BFD0020D4E700BF00208DF817
:103DA00004000EE000BF03208DF8040009E00220AB
:103DB0008DF8040005E000BF01208DF8040000E04C
:103DC00000BF00BF00221146684603F01DFC05F04D
:103DD000DBFC0020B6E7000038B504460CB905202E
:103DE00038BD6946204605F091FDE0B10F48BDF8A9
:103DF000001000EB01108089002812DDA07A80B14C
:103E00000A48BDF8001000EB01108089401E0749E8
:103E1000BDF8002001EB021188810020A07200256E
:103E200002E0062500E00A252846D9E79C53002039
:103E30007FB514461D462B46224601A9684605F06B
:103E400003FD04B070BD37B50C4615462B4622461F
:103E50006946002005F0F8FC3EBD37B50C46154616
:103E60002B4622460021684605F0EEFC3EBD024688
:103E700002B109B905207047106808600020FAE710
:103E800038B504460D4604B10DB9052038BD694664
:103E9000204605F03BFDA8B161680B48BDF8002045
:103EA00000EB02108089401C074ABDF8003002EB8D
:103EB00003129081296060680C3068600120A07254
:103EC0000020E3E70A20E1E79C53002070B5044698
:103ED0000D460CB9052070BD03230022294620465B
:103EE00008F072FBF7E770B504460D460223002286
:103EF0002946204608F068FB70BD70B505460E46A1
:103F000014460CB9052070BD0223224631462846CE
:103F100008F05AFBF7E700000146094A1278082A20
:103F200001D10C200AE0074A054B1B7842F8231008
:103F3000034A1278521C024B1A700020704700008E
:103F4000ED270020BC520020F8B504460D460220A3
:103F500000F01AF908B90220F8BD0CB90520FBE7FA
:103F60006946284608F020FC06461EB9BDF8000048
:103F7000208065803046EFE770B50446022000F0EF
:103F800003F908B9022070BD0CB90520FBE72088B1
:103F9000022801DD0420F6E720880A4901EB00161B
:103FA00071896088C01C081A08D42188608808F0CC
:103FB000EDFB002020806080002500E004252846DD
:103FC000E1E700009C53002070B504460D462A46E8
:103FD0000021204600F00EF8A068401CA06070BDD3
:103FE00001468A68C868801A704701468A68C868AE
:103FF000801A704710B583680B4484882340046896
:10400000E35C137010BDC26883881A40036899543A
:10401000C268521CC26070473EB504460A4B6A46ED
:104020000021A01D05F010FC054635B9064A91880F
:10403000019805F0D9FC054603E003480021016022
:10404000416028463EBD0000FC2700200146A1F546
:10405000404080B270470146B1F5404F05DB4FF656
:10406000FE70814201DC012070470020FCE7000067
:1040700010B50A2002F05EFE102002F05BFE642004
:1040800001F066FFFCF74AF803200149087010BDF3
:10409000EC26002010B50E2002F0CEFD0E2002F01E
:1040A0003EFE10BD10B50E2002F0C6FD0E2002F03F
:1040B000DBFD10BD70B504460D461E480078012892
:1040C0001FD11D48007888B11B480078022829D1EB
:1040D0001A480068FDF74CFA002017490870184983
:1040E000087018490870FCF701F81BE000224FF433
:1040F000A02112480068FDF711FA01200E4908704E
:1041000010E01148007868B90C480068FDF730FAF3
:10411000002009490870FBF7E9FF002008490870F2
:1041200008490870002009490870012008490870F2
:1041300070BD00006D260020DA2600202CC8020089
:10414000ED260020EC260020942600205226002098
:1041500054260020024909788143014A11707047B2
:10416000EC27002010B504462078182802D1FEF76D
:104170009BF9207010BD10B504462078182802D194
:10418000FEF792F9207010BD0146044800780840FF
:1041900008B1012070470020FCE70000EC27002058
:1041A000024909780143014A11707047EC27002049
:1041B00030B504461088C01C984201D90C2030BD8F
:1041C0000220158848551088401C10800120158851
:1041D00048551088401C108015884C551088401C8C
:1041E00010800020EBE700002DE9F04106460C4668
:1041F00015460027B846862C03D0112C01D0002C80
:1042000035D1862C03D14FF00008012709E0112C8D
:1042100003D14FF00108002703E014B94FF0000864
:104220000027C5B13A46134801783046FEF770F9C9
:104230004246114801783046FEF76AF900220F48DD
:1042400001783046FEF764F900220D4801783046C7
:10425000FEF75EF90BE03A46084801783046FEF773
:1042600057F94246064801783046FEF751F9BDE855
:10427000F08100009D2700209C2700209927002026
:104280009827002008B5684600F0C8F8009808B1E3
:10429000012008BD0020FCE70548C068007801281F
:1042A00002D0022802D100E000E000BF00BF70474A
:1042B000C0260020F8B505460C4616461F461C4889
:1042C000007800F0010008B90120F8BD2846FEF78B
:1042D00001FE08B90220F8E70CB90320F5E7C4F3A2
:1042E0000B0008B10620F0E72868A04204D804EBD0
:1042F00006306968884201D90520E6E70EB9042036
:10430000E3E7684605F06EF908B90720DDE7009895
:10431000476000980560022000990872C4F30F30CE
:10432000009988810098068205F018FA0020CCE7F1
:10433000E727002070B505460C46204605F0BCF97D
:1043400070BD4FF010204169481C08B10846704705
:104350004FF0805040690003F9E700002DE9F0417B
:104360002B482C49401A04092948401A0509FFF72F
:10437000E8FF06462848007800F0010010B1002050
:10438000BDE8F081002008E0224A02EB00110A6833
:1043900012B14A6802B16D1E401CA042F4D3002045
:1043A0002BE01C4A02EB0011002700F0FF0C00225A
:1043B00017E0DFF8608008EB0213D3F80080B8F153
:1043C000000F05D0D3F80480B8F1000F00D007E04B
:1043D00093F80D80B84502DD5F7B02F0FF0C00BF53
:1043E000521CA242E5D30B4A02EB0C114E600A7B31
:1043F000A6EB02320A600E68401CA842D1D30648E0
:10440000007840F00100044908700020B8E700007F
:104410003428002024280020E7270020014609B97D
:10442000032070470248406E08600020F9E7000052
:10443000545200202DE9F84305460C4616461F4607
:10444000DDF820801F48007800F0010010B901203D
:10445000BDE8F8832846FEF73DFD08B90220F7E7DE
:1044600006B10CB90320F3E706F0030010B904F01D
:10447000030008B10620EBE72868A04204D804EB4B
:1044800087016868884201D20520E1E70FB904205E
:10449000DEE7684605F0A6F808B90720D8E70098D7
:1044A000C0F8048000980560012000990872009807
:1044B000C660009804610098878205F04FF90020DB
:1044C000C6E70000E727002070B504461748006ED5
:1044D00000EB4000154901EBC0051548007800F0DD
:1044E000020068B1022C02D0032C08D103E0284658
:1044F00002F0C8FF03E0284602F0AEFF00BF12E062
:104500000B48007800F0040068B10948007820F0FA
:104510000400074908700548406E20B1084600783D
:1045200040F00200087005F091F870BD5452002070
:10453000E72700203EB500BF9DF8000020F00F00E7
:10454000401C00909DF8000020F0F000103000901A
:1045500000BF1748FAF7D3FE85B22A4614496846C9
:104560007CDF044600BF254625B100BF2846FCF786
:1045700085FE00BF00BF0020019002900620ADF82C
:1045800004001020ADF806000020ADF808004FF43C
:10459000C870ADF80A0001A87ADF044600BF2546BE
:1045A00025B100BF2846FCF769FE00BF00BF3EBD35
:1045B0003126002070B50021064801F035FC044684
:1045C00000BF254625B100BF2846FCF757FE00BFB7
:1045D00000BF70BD5028002070B505460DB1012008
:1045E00070BD1848007B18B100201649087301E01F
:1045F00000F0D4F81348007808281DD2DFE800F056
:104600001C04080C101C141800F03CF8044615E0BB
:1046100000F0B2F8044611E000F08EF804460DE018
:1046200000F044F8044609E000F01CF9044605E0F7
:1046300000F028F9044601E00F2400BF00BF204627
:10464000CEE70000BC5300200C480089401C0B49F9
:10465000088100204880087300BF0CE0084901EB86
:104660000011097809B9012200E0002203490A314A
:104670000A54411C88B20228F0DB7047BC5300206A
:104680009C53002010B5084800F032F840B90020D3
:104690000549891E08704880486041F61D5010BDCC
:1046A00000F06AF8FBE70000BE53002070B50D482B
:1046B00045880D4800EB0510808968B90A4800EB71
:1046C00005100023012241680848FFF7F3FD044666
:1046D00004200449087002E000F08CF804462046EB
:1046E00070BD0000BC5300209C53002024280020F3
:1046F00010B501460022002015E00D4B1B5C83B174
:1047000000240B4B1C540B4B03EB00139B8943B948
:10471000084B03EB00139B7B012B02D10880012285
:1047200003E0431C98B20228E7DB00BF104610BD2F
:10473000C65300209C530020F8B50C4844680C4830
:1047400000680B49898800EB81056088C01C86B22F
:104750000320064908700020009008463346294689
:1047600042680448FFF766FEF8BD0000BC53002015
:10477000F42700202428002010B507494888091D87
:1047800005F002F918B1FFF7D7FF044602E0FFF782
:104790008DFF0446204610BDBC53002010B51448C0
:1047A0000078082820D2DFE800F0041F1F0A101646
:1047B000171BFFF749FF01200D49087015E000F0B5
:1047C0006DF802200A4908700FE000F029F8062071
:1047D0000749087009E000BF07200549087004E098
:1047E00001200349087000E000BF00BF10BD0000B9
:1047F000BC53002010B50520064908700220064968
:10480000888008460023012201680448FFF752FD12
:1048100010BD0000BC530020F427002024280020F5
:104820000D4908680D4949880D4A02EB0111496894
:10483000094A116009494988094A02EB0111486097
:1048400005498988054A5288054B03EB02121181FC
:104850000221014A91807047F4270020BC530020B8
:104860009C53002010B50620044908704988044A6A
:1048700002EB0111486802F0B1FF10BDBC530020EB
:104880009C53002010B507200349087000204860A1
:1048900002F0B4FF10BD0000BC530020054A506870
:1048A0004288D21C91B2044A92880A44024B9A80F0
:1048B00070470000BC530020F42700203EB504469A
:1048C0002088502821D0522802D0542825D103E036
:1048D000A08801F01BF820E006208DF80000A088D9
:1048E00000F0B6FBADF80200A088ADF80400BDF8FA
:1048F000020000F00FF9A08800220C490978FDF7AA
:1049000007FE6846FEF7A8FF07E0A01DFEF714FAB1
:1049100010B1A08801F04AF800BF00BFFCF7CCFF3F
:1049200007F07CF905F088FD3EBD00004727002018
:104930003EB504466088ADF80200207820B1012819
:104940000FD002282BD116E000208DF80000684619
:10495000FEF782FF608800F0A5FA054600F0D6FF5A
:104960001DE001208DF80000A088ADF80400684625
:10497000FEF772FF13E0207980B1608800F092FAB0
:1049800005464FF6FF70854207D0012205480178A1
:104990002846FDF7BDFD05F04FFD00BF00BF00BF7D
:1049A0003EBD00004727002010B5044620780128AE
:1049B0000DD1608800F0AAFF608800F08FF928B15F
:1049C0006088012203490978FDF7A2FD00E000BFDD
:1049D00000BF10BD4727002010B500F055FCFDF7C3
:1049E00063FD12490870FDF75FFD11490870FDF77E
:1049F0005BFD10490870FDF757FD0F4908700B4823
:104A0000007818280BD00A480078182807D00948E1
:104A10000078182803D008460078182801D1032010
:104A200010BD0120054908700020F9E74527002046
:104A30004627002047270020482700204427002041
:104A400010B592B000F07EF801A8FDF79FFC00249D
:104A500012E002A931F8140000F0FAFA4FF6FF71E3
:104A6000884207D102A931F81400012206490978C9
:104A7000FDF74EFD601C84B20198A042E9D805F014
:104A8000DBFC12B010BD00004727002010B5044623
:104A90002078072803D1608800F088FF00E000BF7D
:104AA00000BF10BD10B504460B4801782046FDF745
:104AB0001BFD70B100210AE001EB4100074A02EB47
:104AC00080004088A04201D1C8B210BD491C142901
